:020000020000FC
:10000000219A259A249A23982D982C982B9A02EAC3
:10001000009380000AE10093810000E0F8940093CF
:10002000850000938400789400E41CE9F894109310
:1000300087000093860078940F931F9307E610E0E3
:100040000093C4001093C50008E10093C10006E0CE
:100050000093C2001F910F910E94CE001B9B02C013
:100060002D98FACF1D9A0E9454002F938F939F933F
:1000700028EC8EE39CE90197F1F72A95D1F700006F
:100080009F918F912F912F938F939F9328EC8EE3C5
:100090009CE90197F1F72A95D1F700009F918F9184
:1000A0002F910E949C00D8CF0F930091C00005FFB4
:1000B000FCCF01E30093C6000F910F930091C000A5
:1000C00005FFFCCF0DE00093C6000091C00005FFC6
:1000D000FCCF0AE00093C6000F9104E813E0F89407
:1000E000109389000093880078942C9A2F938F9313
:1000F0009F9322E38EE39CE90197F1F72A95D1F7CC
:1001000000009F918F912F912C9804E213E1F894B5
:10011000109389000093880078942F938F939F9376
:1001200022E38EE39CE90197F1F72A95D1F70000CD
:100130009F918F912F9108950F930091C00005FF1B
:10014000FCCF00E30093C6000F910F930091C00015
:1001500005FFFCCF0DE00093C6000091C00005FF35
:10016000FCCF0AE00093C6000F9104E813E0F89476
:10017000109389000093880078942C9A2F938F9382
:100180009F9322E38EE39CE90197F1F72A95D1F73B
:1001900000009F918F912F912C9808954091C0005D
:1001A00047FF03C04091C60001C040E0413319F051
:1001B000403321F008950E945400FCCF0E949C001F
:1001C000F9CF2D9A2F938F939F9324E68EE39CE98A
:1001D0000197F1F72A95D1F700009F918F912F9108
:1001E0002D982F938F939F9324E68EE39CE901979C
:1001F000F1F72A95D1F700009F918F912F91DACFD7
:00000001FF
